:100000000A128A110C280134FE00030EF0000A08BF
:10001000F1000A128A15302B0A128A110F28831355
:10002000C030FD001730FE00F430FF00B430840013
:100030000A128A155F210A128A116A30FD001730F0
:10004000FE00C930FF00603084000A128A155F216B
:100050000A128A110A128A1103200A128A11FB005D
:10006000A0308400B4300A168A11AF270A128A1110
:100070004630840060300A168A11AF270A128A11AE
:10008000F901FA0183010A128A1146288312031327
:100090006608BE006708BF006808C0000230B800EC
:1000A0003808C200C1010A128A157C220A128A117C
:1000B0003E3083120313A4000030A500A6010A12EB
:1000C0008A1507260A128A11323083120313B800E8
:1000D0003808F20000300A128A15A7220A128A1183
:1000E000343083120313B8003808F20001300A12CA
:1000F0008A15A7220A128A11323083120313B8001C
:100100003808F20002300A128A15A7220A128A1150
:10011000343083120313B8003808F20003300A1297
:100120008A15A7220A128A110A3083120313A0002B
:100130000030A1000A128A1549210A128A11730897
:1001400083120313A3007208A2000A128A15142452
:100150000A128A11831203132008B8003808C40059
:1001600064304402031CB528B628BA286330B800AE
:100170003808C40001300A128A1552220A128A1164
:1001800083120313B8003808C500B830BB000B3029
:10019000BC00FF30BB070318BC0AFF30BC073B0A9A
:1001A000031DD6283C0A031DD628D728C9283E306F
:1001B0004506031DDC28DD28F728EF30F2008830E3
:1001C000F3003E300A128A152B220A128A113E30A1
:1001D00083120313A4000030A5004408B8003808B7
:1001E000A6000A128A1507260A128A11D62A3D305D
:1001F0004506031DFC28FD282B2906304102031863
:10020000022903292B294108B8003807B43E84008D
:1002100083130008F200840A00088403F3003E30D0
:100220000A128A152B220A128A113E3083120313F6
:10023000A4000030A5004408B8003808A6000A123F
:100240008A1507260A128A11013083120313B80097
:100250003808C107D62A3B304506031D302931290D
:100260005A2941080319352936295A290130C10272
:100270004108B8003807B43E840083130008F20038
:10028000840A00088403F3003E300A128A152B22E8
:100290000A128A113E3083120313A4000030A50015
:1002A0004408B8003808A6000A128A1507260A1260
:1002B0008A11D62A02304206031D5F296029A1292E
:1002C000373045060319652966296C292F30450604
:1002D000031D6B296C29A1290A128A1522210A12F1
:1002E0008A11A430F6008830F7008030831203139F
:1002F000B8003808F8000A128A1501230A128A1178
:10030000F201C6300A128A15E8210A128A11F20196
:100310000F300A128A15E8210A128A11A5308312B9
:100320000313B800B80B92299529043083120313E4
:10033000B8003808C2001130B8003808C3001215E0
:10034000D62A06304206031DA629A729D62A1F3021
:100350004506031DAC29AD29D62A072A0A128A159B
:1003600022210A128A114530F6008830F7008030C9
:1003700083120313B8003808F8000A128A15012303
:100380000A128A11083083120313B8003808C20019
:100390001530B8003808C300D62AFE30A4008830D3
:1003A000A5004408B8003808A6000A128A150726D6
:1003B0000A128A110A128A1522210A128A110A3097
:1003C00083120313B8003808C2001730B800380889
:1003D000C300D62AFE30A4008830A5004408B80027
:1003E0003808A6000A128A1507260A128A110A126C
:1003F0008A1522210A128A110C3083120313B800C5
:100400003808C2001930B8003808C300D62A3D08A1
:10041000B800B9013908003A03190F2A1A2A380816
:10042000003A0319AE29013A0319CD29033A0319F9
:10043000EA291A2AD62A4408B8003808A7003E300C
:100440000A128A15A8250A128A11F42A0230B80065
:100450003808C2001211F2010C300A128A15E82184
:100460000A128A11A53083120313B800B80B362A7A
:10047000392AF42A0630B8003808C2001330B80010
:100480003808C3000A128A1522210A128A11F201C1
:100490000C300A128A15E8210A128A11A53083123B
:1004A0000313B800B80B522A552A831203131211F2
:1004B00094284308B8003808A60045080A128A1193
:1004C000FE220A128A1183120313B900BA013A08F4
:1004D000003A03196C2AF42A3908023A0319262A29
:1004E000133A03193A2AF42A4308B8003808A60038
:1004F00045080A128A1149270A128A118312031326
:10050000B9003908BD00F42A4308B8003808A6002D
:1005100045080A128A1115260A128A11F42A43087C
:100520000A128A15D5230A128A11113A031D992A33
:100530009A2AF42A0A128A1522210A128A110630EE
:1005400083120313B8003808C2001330B80038080B
:10055000C30094280A128A1522210A128A11F20174
:100560000C300A128A15E8210A128A11A53083126A
:100570000313B800B80BBA2ABD2A9F2A4308B80053
:100580003808A60045080A128A119D240A128A1109
:1005900083120313B900BA013A08003A0319D12AA9
:1005A000F42A3908113A0319AA2AF42A83120313E8
:1005B0004208B800B9013908003A0319E02AF42AC0
:1005C0003808023A03191B2A063A0319592A023A33
:1005D0000319742A0E3A0319842A023A03198F2A3E
:1005E000063A0319BE2AF42AFF3083120313B80017
:1005F0003808C30094280A128A110C2883120313A6
:10060000AE0011302606031D062B072B182B0530D4
:10061000A7002708D4003330A7002708D200D10153
:10062000DC01DD01DE01DF013F30A7002708AE005D
:100630005408031D1C2B1D2B1F2B02309C2C373004
:100640002E06031D242B252B492B043051020318A1
:100650002A2B2B2B492B3430A70051085C3E8400F9
:100660002708831380005108C63EA7002708A4006E
:100670002A300A128A156E210A128A110130831259
:100680000313A7002708D1070530A7002708D400C7
:10069000692B2F302E06031D4E2B4F2B692B043058
:1006A00051020318542B552B692B3230A7005108E7
:1006B0005C3E84002708831380005108C63EA700D3
:1006C0002708A4002A300A128A156E210A128A11FC
:1006D0003E2B04305106031D6E2B6F2B9B2CAF015C
:1006E000B001831203132F080A128A1598210A12E7
:1006F0008A1183120313A7002F082A3E84002708BB
:10070000831380000130AF070318B00A0030B00730
:100710003008803AFF0080307F02031D912B0430A7
:100720002F02031C942B952B712B2A308312031359
:10073000A7002708F2000430F3000030F4005C301A
:100740000A128A1597230A128A1172087304031D6C
:10075000AA2BAB2BAD2B11309C2C01308312031331
:10076000D20230305206031DB62BB72B2E2CF201CD
:100770000C300A128A15E8210A128A11A530831258
:100780000313A700A70BC22BC52B5630F6008830E9
:10079000F700803083120313A7002708F8000A121D
:1007A0008A1501230A128A112330F6008830F700D7
:1007B000C03083120313A7002708F8000A128A1515
:1007C00001230A128A111E3083120313A70027087F
:1007D000D300222CCB30A7002708A4000A30F20057
:1007E0000030F3005308A800A9012808F4002908E4
:1007F000F5000A128A1597270A128A117208303EEC
:100800000A128A156E210A128A11CC308312031340
:10081000A7002708A4000A30F2000030F3005308B4
:10082000A800A9012808F4002908F5000A128A1571
:100830004F250A128A117208303E0A128A156E215B
:100840000A128A11831203135308031D282C292C22
:10085000EA2B3330A7002708D2006B2C0A128A1526
:1008600022210A128A118630F6008830F700803083
:1008700083120313A7002708F8000A128A15012320
:100880000A128A11C03083120313A7002708A4009C
:1008900052080A128A156E210A128A117630F60061
:1008A0008830F700C13083120313A7002708F8002F
:1008B0000A128A1501230A128A114D30831203137A
:1008C000A9001930A8004F30A700A70B652CA80B72
:1008D000652CA90B652C0A128A1522210A128A118D
:1008E000A430F6008830F700803083120313A7008D
:1008F0002708F8000A128A1501230A128A11F20148
:10090000C6300A128A15E8210A128A11F2010F3044
:100910000A128A15E8210A128A11A53083120313DC
:10092000A700A70B912C942C83120313D10105303F
:10093000A7002708D4001030080083120313AA0070
:1009400019302606031DA52CA62CAC2CCB01CC01FE
:100950000130C9000030CA004C08803AFF008030E6
:100960007F02031DB52C04304B020318B82CB92CA0
:10097000DF2C8312031349084A040319C02CC12C2D
:10098000DF2CC901CA010230F6008830F700803040
:10099000A7002708F8000A128A1501230A128A11F3
:1009A000F201C0300A128A15E8210A128A11F201F6
:1009B0000F300A128A15E8210A128A111C2D83129F
:1009C00003134C08803AFF0080307F02031DEA2C9D
:1009D00004304B02031CED2CEE2C1C2D8312031350
:1009E00049084A04031DF52CF62C1C2D0130C900C2
:1009F0000030CA000A128A1522210A128A11003018
:100A0000F6008830F700803083120313A700270810
:100A1000F8000A128A1501230A128A11F201C03065
:100A20000A128A15E8210A128A11F2010F300A12FD
:100A30008A15E8210A128A113730831203132A0615
:100A4000031D232D242D412D3430A7004B08AB3E30
:100A500084002708831380004B080339C03EA70099
:100A60002708A4002A300A128A156E210A128A1158
:100A7000013083120313CB070318CC0A0030CC07D4
:100A80005C2D2F302A06031D462D472D5C2D34305A
:100A9000A7004B08AB3E84002708831380004B0857
:100AA0000339C03EA7002708A4002A300A128A157D
:100AB0006E210A128A11382D08304B064C04031D92
:100AC000622D632D132EAF30A7002708F2000430EB
:100AD000F3000030F400AB300A128A1597230A1293
:100AE0008A1172087304031D762D772DE12D831270
:100AF0000313AB01AC01831203132B08AB3E84003C
:100B000083130008A7002708F2002B080A128A1591
:100B1000A7220A128A11013083120313AB070318AC
:100B2000AC0A0030AC072C08803AFF0080307F020E
:100B3000031D9C2D04302B02031C9F2DA02D7B2D0B
:100B40000A128A1522210A128A11F2010C300A12A5
:100B50008A15E8210A128A11A53083120313A7000F
:100B6000A70BB02DB32D3430F6008830F70080305D
:100B700083120313A7002708F8000A128A1501231D
:100B80000A128A11C030F6008830F700C030831294
:100B90000313A7002708F8000A128A1501230A1276
:100BA0008A114D3083120313A9001930A8004F3069
:100BB000A700A70BD92DA80BD92DA90BD92D113022
:100BC000142E0A128A1522210A128A11F2010C30FF
:100BD0000A128A15E8210A128A11A530831203131A
:100BE000A700A70BF12DF42D6630F6008830F70032
:100BF000803083120313A7002708F8000A128A1511
:100C000001230A128A11E830F6008830F700C0305C
:100C100083120313A7002708F8000A128A1501237C
:100C20000A128A11D12D1030080083120313B50067
:100C30004D0A031D1F2E4E0A031D1F2E202E2E2E81
:100C4000E030F6008830F700C030A7002708F80031
:100C50000A128A1501230A128A11482F1530260616
:100C6000031D332E342E352ECF012F303506031DB4
:100C70003A2E3B2E552E4D08FF3EA7004E08031876
:100C8000013EFF3EA8002808803A803C031D4A2E02
:100C900027084F0203184D2E4E2E552E0130831279
:100CA0000313A7002708CF07642E373083120313DE
:100CB0003506031D5C2E5D2E642E4F080319612E30
:100CC000622E642E0130CF02B601B7010A308312C2
:100CD0000313A7002708F2004F080A128A15832180
:100CE0000A128A11053E83120313A8002808B400D3
:100CF000360834070A128A1598210A128A118312BB
:100D00000313A70036082A3E8400270883138000B7
:100D10000130B6070318B70A0030B7073708803A22
:100D2000FF0080307F02031D972E0A303602031C1D
:100D30009A2E9B2E662EC03083120313A70027081D
:100D4000A4000A30F2000030F3004F08A800A90107
:100D50002808F4002908F5000A128A154F250A12FE
:100D60008A117208303E0A128A156E210A128A11FF
:100D7000C23083120313A7002708A4002A080A120E
:100D80008A156E210A128A11C33083120313A70039
:100D90002708A4002B080A128A156E210A128A114C
:100DA000C43083120313A7002708A4003A300A12A4
:100DB0008A156E210A128A11C53083120313A70007
:100DC0002708A4002C080A128A156E210A128A111B
:100DD000C63083120313A7002708A4002D080A12A7
:100DE0008A156E210A128A11C73083120313A700D5
:100DF0002708A4003A300A128A156E210A128A11B5
:100E0000C83083120313A7002708A4002E080A1273
:100E10008A156E210A128A11C93083120313A700A2
:100E20002708A4002F080A128A156E210A128A11B7
:100E3000CB3083120313A7002708A40030080A123E
:100E40008A156E210A128A11CC3083120313A7006F
:100E50002708A40031080A128A156E210A128A1185
:100E6000CE3083120313A7002708A40032080A1209
:100E70008A156E210A128A11CF3083120313A7003C
:100E80002708A40033080A128A156E210A128A1153
:100E9000080083120313AA0013302606031D512FE6
:100EA000522F532FD0012F302A06031D582F592FB0
:100EB000692F0230500203185E2F5F2F692F013017
:100EC000A7002708D0070A128A1522210A128A11C0
:100ED000772F37302A06031D6E2F6F2F772F50087C
:100EE0000319732F742F772F0130D002632F023034
:100EF00083120313500203187E2F7F2FB82F8030E8
:100F0000A7002708A4002A300A128A156E210A12A7
:100F10008A11831203135008A7002707603E84003C
:100F200083130008F600840A00088403F700823067
:100F3000A9002908F8000A128A1501230A128A1149
:100F4000831203135008A7002707623E840083130F
:100F50000008F600840A00088403F700C230A900E4
:100F60002908F8000A128A1501230A128A11F62F9D
:100F700002305006031DBD2FBE2FF62F5008A700CC
:100F800027075E3E840083130008F600840A0008E9
:100F90008403F7008230A9002908F8000A128A1594
:100FA00001230A128A11831203135008A70027078E
:100FB000603E840083130008F600840A000884035E
:100FC000F700C230A9002908F8000A128A15012387
:100FD0000A128A11C03083120313A7002708A40045
:100FE0002A300A128A156E210A128A1183120313FB
:100FF000500808008316031306083F3886000800CF
:101000007234653465346E3474346534723420342B
:101010006E346534773420347034733477347234FA
:101020006434003420342034543449344D3445344D
:1010300020342034203420342034453420342034EB
:1010400053345034003477346134693474342E347A
:101050002E342E3466346F347234203433343034CA
:1010600073346534633400347034613473347334EE
:1010700077346F34723464342034633468346134C8
:101080006E3467346534643400342334203454348B
:1010900049344D3445342034203420342034203435
:1010A00045342034203453345034003479346F3490
:1010B00075342034613472346534203462346C34D5
:1010C0006F3463346B3465346434003470346134A9
:1010D0007334733477346F3472346434203463344B
:1010E000683461346E346734653400346134743488
:1010F000743465346D34703474342034723465342F
:101100006D34613469346E3473340034773472343E
:101110006F346E3467342034703461347334733414
:1011200077346F3472346434003463346834613437
:101130006E346734653420347034613473347334FE
:10114000773472346434003445344E345434453486
:1011500052342034503441345334533457344F34A0
:101160005234443400346C346F3467347334203474
:1011700063346C34653461347234653464340034FF
:101180007334753463346334653473347334663460
:1011900075346C346C347934003463346C346534B5
:1011A0006134723420346C346F34673400347634F4
:1011B00069346534773420346C346F3467340034E8
:1011C0006E346F3420346C346F34673473340034CD
:1011D0006634613469346C346534643400344334C7
:1011E000203400344734313400344734323400344E
:1011F00047343334003447343434003443344C34CB
:10120000003447344E340034473452340034003410
:101210000034FF1B132983137F1883170008840AE7
:101220000319FF0A08007F087F398A000408840A2E
:101230000319FF0A8200831603139F1783120313F7
:101240001F140800F20101300A128A15E8210A125F
:101250008A15A630F600F60B2B290000080083162D
:1012600003131419342935292F2911081F39031D97
:101270003A293B292F2908008312031312149214D0
:10128000FA308316031392008C1483120313121185
:101290000800831203131F151F194F2950294C29C9
:1012A0001E08F500831603131E08F4007508F300EA
:1012B0007408F20008007E088A007F0882000A1283
:1012C0008A155B210A128A158000840A04087D06AB
:1012D00003190034FF0A0319FE0A5F29831203135E
:1012E000A500F20124080A128A15E8210A128A15BB
:1012F000F201F20A8312031325080A128A15E82163
:101300000A128A150800F500F401751C882989293C
:101310008D297208F3007308F4070310F20D03100F
:10132000F50C7508031D9529962985297408080070
:10133000F3006400831603178C189F29A0299929AC
:101340007308831203178D003F30F2007208831672
:1013500003178C050C14831203170C0808000030C7
:101360000A128A15D4220A128A15F8007808831204
:101370000313A00020087F39F8007808A000200897
:10138000F8007808F30000300A128A15CA210A1200
:101390008A150800F4000A168A11B7270A128A155E
:1013A000D0300A168A11DE270A128A1574080A1626
:1013B0008A11DE270A128A1573080A168A11DE2797
:1013C0000A128A150A168A11C0270A128A150800FD
:1013D000F5007218EC29F029831203130915F3297B
:1013E000831203130911750888008914A630F300CD
:1013F000F30BF82900008312031389101B30F4004B
:101400009E30F300F30B022AF40B022A00000800BE
:10141000F3000A128A152F210A128A158316031364
:1014200091150A128A152F210A128A1583120313A5
:101430001308F2007208F4007303031D202A212A06
:10144000252A831603139116282A83160313911253
:10145000111674080800F6007608F4007408F50008
:101460003B2A0130F4007408F5070130F207031835
:10147000F30A0030F307730883120313FF007208A6
:1014800084000A128A1509210A128A15F4007508C7
:1014900084007408831380000008031D502A512A19
:1014A000312A0800F3007308031D572A582A5D2AC1
:1014B0008312031306083F397B2A3F30831203133C
:1014C0000605F2003F3072060319672A682A6F2A60
:1014D0007B0803196C2A6D2A6F2AFB01582A3F30BA
:1014E0000605F2003F307206031D772A782A7A2A11
:1014F000FB01FB0A3F3008000A168A11E9270A128D
:101500008A15003083120313AB000130AA00863025
:10151000A900A030A8000A128A1563230A128A15AE
:101520000A128A15AF210A128A150A128A151B217E
:101530000A128A150A128A11FA270A128A150A1241
:101540008A153C210A128A150B178B170800F40024
:10155000831603178C18AD2AAE2AA82A74088312A2
:1015600003178D0072088C003F30F3007308831658
:1015700003178C058312031303108B1FC02AC12A83
:10158000C22A03148B13831603170C1555308D00D4
:10159000AA308D008C140C1183120313031CD12A62
:1015A000D22AD32A8B170800F6000A168A11B72709
:1015B0000A128A15D0300A168A11DE270A128A15F5
:1015C00076080A168A11DE270A128A150A168A1167
:1015D000D3270A128A15D1300A168A11DE270A1279
:1015E0008A1500300A128A1508220A128A15F50097
:1015F0007508F7000A168A11C0270A128A1577089B
:101600000800F20178080A128A15E8210A128A15E0
:101610001F2BF201F20A7708FF00760884000A12F5
:101620008A1509210A128A150A128A15E8210A1256
:101630008A150130F6070318F70A0030F707770814
:1016400083120313FF00760884000A128A15092109
:101650000A128A15003A031D2E2B2F2B092B080086
:10166000831203138C1C352B362B5C2B0130F907AE
:101670000318FA0A0030FA07E23079060430031939
:101680007A06031D442B452B5B2BF901FA01530805
:1016900003194B2B4C2B4F2B0130D3025B2B5308E0
:1016A000031D532B542B5B2B54080319582B592B18
:1016B0005B2B0130D4028C1071088A00700E8300FD
:1016C000FE0E7E0E09008312031394152808AC0049
:1016D0002908AD002A08AE002B08AF000230031025
:1016E000AC0DAD0DAE0DAF0DFF3E031D6F2B2F08E2
:1016F000A3002E08A2002D08A1002C08A000013094
:10170000A7003130A6002D30A5000030A4000A1239
:101710008A152F270A128A15831203132008FF3E09
:101720008316031393008312031394160800F70023
:10173000C42B77088400831300080319A02BA12B66
:10174000AD2B720884000008F500770884000008BB
:1017500075060319AC2BAD2BBC2B72088400000856
:10176000F500770884000008F60075087602F2009C
:10177000F301031CF303D42B0130F5007508F707C0
:101780000130F5007508F2070130F3020030031C48
:10179000F403F402730A031DD12B740A031DD12B29
:1017A000D22B992BF201F301080083120313A3003B
:1017B00017302306031DDD2BDE2B122CFF30CD004E
:1017C000FF30CE00FF30A0002008E900B330F60063
:1017D0008830F7008030A0002008F8000A128A152F
:1017E00001230A128A15C030F6008830F700C03095
:1017F00083120313A0002008F8000A128A1501239F
:101800000A128A154D3083120313A2001930A10069
:101810004F30A000A00B0A2CA10B0A2CA20B0A2C03
:101820001130132C2230080083120313A501A601E6
:101830002008210403191D2C1E2C552CA401A40AD8
:101840002C2C01300310A00DA10DFF3E031D222CF6
:101850000130F6007608A407A11F2F2C302C212C74
:1018600001300310A50DA60DFF3E031D312C2108EC
:101870002302031D3D2C20082202031C402C412C76
:10188000482C2008A2022108031CA303A30225144C
:1018900001300310A10CA00CFF3E031D492C0130A8
:1018A000A402031D542C552C302C2608A100250819
:1018B000A000080083120313A0002008F600760899
:1018C000A100862C0130F4020030031CF503F50260
:1018D0007308F7007208F600F20A0319F30A770892
:1018E000FF00760884000A128A1509210A128A1557
:1018F000F800210884000130A107780883138000D4
:101900000008031D842C852C862C952C74087504E6
:10191000031D8B2C8C2C622C952C210884008313A6
:1019200080010130F6007608A1070130F402003092
:10193000031CF503F502740A031DA22C750A031D8E
:10194000A22CA32C8D2C0800C330F700CD30F6005C
:10195000F60BA82CF70BA82CF20133300A128A15CB
:10196000E8210A128A151B30F7009E30F600F60BAC
:10197000B72CF70BB72C0000F20133300A128A158E
:10198000E8210A128A15A630F600F60BC52C0000D5
:10199000F20133300A128A15E8210A128A15D02C76
:1019A000D12C0000F20138300A128A15E8210A12FF
:1019B0008A15A630F600F60BDB2C0000F201013090
:1019C0000A128A15E8210A128A15A630F600F60BCB
:1019D000E72C0000F2010C300A128A15E8210A12E5
:1019E0008A15A630F600F60BF32C00000800013033
:1019F000F600760883120313E9070A306906031D0F
:101A0000022D032D042DE9010A30F6007608F200BC
:101A100069080A128A1583210A128A15053EF70001
:101A2000770883120313A000A101A201302D210821
:101A3000A03E84000008F6007608F20020080A1292
:101A40008A15A7220A128A150130F6007608831239
:101A50000313A0070130A1070318A20A0030A20750
:101A60002108A03E840083130008031D382D392D62
:101A7000172D4E08803AFF0080307F02031D422D53
:101A800009304D020318452D462D4E2D013083128D
:101A90000313CD070318CE0A0030CE070800F80163
:101AA000F51F532D542D5B2DF409F509F40A031984
:101AB000F50AF801F80AF31F5E2D5F2D642DF20977
:101AC000F309F20A0319F30A720873040319692D62
:101AD0006A2D992DF701F70A782D01300310F20DC8
:101AE000F30DFF3E031D6E2D0130F6007608F7075B
:101AF000F31F7B2D7C2D6D2D73087502031D822D28
:101B000072087402031C852D862D8C2D7208F40238
:101B10007308031CF503F50201300310F30CF20CFB
:101B2000FF3E031D8D2D0130F702031D982D992DC9
:101B30007C2D780803199D2D9E2DA32DF409F50900
:101B4000F40A0319F50A7508F3007408F200080096
:101B500083120313AB001230F6008830F700803098
:101B6000A8002808F8000A128A1501230A128A150B
:101B70000A128A15C9260A128A15831203132B0822
:101B8000F6000030F700CB30A8002808F8000A1251
:101B90008A1501230A128A15CE3083120313A80076
:101BA0002808A4000A30F2000030F3002708A9003A
:101BB000AA012908F4002A08F5000A128A159727B5
:101BC0000A128A157208303E0A128A156E210A120C
:101BD0008A15CF3083120313A8002808A4000A3006
:101BE000F2000030F3002708A900AA012908F40038
:101BF0002A08F5000A128A154F250A128A1572085A
:101C0000303E0A128A156E210A128A1508000A123D
:101C10008A1567260A128A155530F2000030F30043
:101C20000630F4000030F500A0300A128A155A245C
:101C30000A128A15831203132408F2002508F30000
:101C40000230F4000030F500A6300A128A155A243A
:101C50000A128A150A30F2000030F30083120313CF
:101C60002608A700A8012708F4002808F5000A1292
:101C70008A1597270A128A157208303E83120313B9
:101C8000A900290883160313A8000A30F2000030C7
:101C9000F300831203132608A700A8012708F40005
:101CA0002808F5000A128A154F250A128A157208AB
:101CB000303E83120313A900290883160313A900D9
:101CC000AA010A128A15F7240A128A15080002309E
:101CD0000A128A15D4220A128A1583120313A0004D
:101CE0002008C60001300A128A15D4220A128A1569
:101CF00083120313A0002008C70000300A128A15BF
:101D0000D4220A128A1583120313A0002008C800E7
:101D10004608A00004300310A00CFF3E031D8B2ECC
:101D200020080339303EA1002108D50046080F39AC
:101D3000303EA0002008D6004708A0000430031061
:101D4000A00CFF3E031D9F2E20080739303EA10046
:101D50002108D70047080F39303EA0002008D800DE
:101D60004808A00004300310A00CFF3E031DB32E52
:101D700020080739303EA1002108D90048080F3952
:101D8000303EA0002008DA000730A0002008DB0069
:101D900008000A128A1567260A128A15C2308312B1
:101DA0000313A6002608A40055080A128A156E21FE
:101DB0000A128A15C33083120313A6002608A40052
:101DC00056080A128A156E210A128A15C430831227
:101DD0000313A6002608A4003A300A128A156E21C1
:101DE0000A128A15C53083120313A6002608A40020
:101DF00057080A128A156E210A128A15C6308312F4
:101E00000313A6002608A40058080A128A156E219A
:101E10000A128A15C73083120313A6002608A400ED
:101E20003A300A128A156E210A128A15C8308312B6
:101E30000313A6002608A40059080A128A156E2169
:101E40000A128A15C93083120313A6002608A400BB
:101E50005A080A128A156E210A128A1508000030E3
:101E6000F6000030F5000030F4000030F30083127B
:101E7000031323082204210420040319402F412FB7
:101E80008E2FF701F70A512F0130F2000310A00D39
:101E9000A10DA20DA30DF20B462F0130F200720826
:101EA000F707A31F542F552F442F0130F2000310C2
:101EB000F30DF40DF50DF60DF20B572F2308270245
:101EC000031D6C2F22082602031D6C2F21082502FA
:101ED000031D6C2F20082402031C6F2F702F7F2FEF
:101EE0002008A4022108031C210FA5022208031CBC
:101EF000220FA6022308031C230FA702731401302C
:101F00000310A30CA20CA10CA00CFF3E031D802FFC
:101F10000130F702031D8D2F8E2F552F7608A30059
:101F20007508A2007408A1007308A00008008312BD
:101F30000313A101F31F9D2F9E2FA52FF209F30973
:101F4000F20A0319F30AA101A10AF51FA82FA92F6C
:101F5000B22FF409F509F40A0319F50A0130F60065
:101F60007608A106A201A301720873040319B92F10
:101F7000BA2FF12FA001A00AC82F01300310F20DD3
:101F8000F30DFF3E031DBE2F0130F6007608A007BB
:101F9000F31FCB2FCC2FBD2F01300310A20DA30DAB
:101FA000FF3E031DCD2F73087502031DD92F720844
:101FB0007402031CDC2FDD2FE42F7208F402730877
:101FC000031CF503F502221401300310F30CF20C8C
:101FD000FF3E031DE52F0130A002031DF02FF12F5E
:101FE000CC2F21080319F52FF62FFB2FA209A309E7
:101FF000A20A0319A30A2308F3002208F20008002A
:102F5E0064008001840A0406031900340406B02FAD
:102F6E000A128A152F210A168A11831603131114B9
:102F7E0008000A128A152F210A168A1183160313C6
:102F8E0011150800D7348834CD34883495348834FC
:102F9E004F344E340034FF340A168A11C0270A16F5
:102FAE008A110A168A11B7270A168A110800F2002A
:102FBE000A128A152F210A168A1172088312031318
:102FCE0093000800831603138801091189100A1251
:102FDE008A15A4240A168A1108000134893404348F
:102FEE008934F2348834F5348834F8348834FB3438
:022FFE00883415
:08400000FF3FFF3FFF3FFF3FC0
:02400E00FB3F76
:00000001FF
